:020000040800F2
:1000000000000524A9220008311600083316000854
:1000100035160008371600083916000800000000E1
:10002000000000000000000000000000C1BD00084A
:100030003B1600080000000061BE0008BFBA0008BF
:10004000F9220008F9220008F9220008F922000824
:10005000F9220008F9220008F9220008F922000814
:10006000F9220008F9220008F92200083D160008CC
:100070004D1600085D1600086D1600087D16000874
:100080008D1600089D160008F9220008AD1600081C
:10009000BD160008CD160008DD160008F92200087C
:1000A000F9220008F9220008F9220008F9220008C4
:1000B000F9220008F9220008F9220008F9220008B4
:1000C000F9220008F9220008F9220008F9220008A4
:1000D000ED160008FD160008F9220008F9220008B4
:1000E000F9220008F922000800000000F9220008A7
:1000F000F92200080D170008F92200081D17000852
:10010000F9220008F9220008F9220008F922000863
:10011000F92200082D170008F9220008F92200082A
:100120003D1700084D170008F9220008F9220008C1
:10013000F9220008F9220008F9220008F922000833
:1001400000000000000000000000000000000000AF
:10015000F9220008F9220008F9220008F922000813
:10016000F9220008F9220008F9220008F922000803
:10017000F92200085D170008F922000800000000BD
:10018000F9220008F92200086D170008F92200087A
:10019000F9220008F9220008F9220008F9220008D3
:1001A000F9220008F9220008F922000800000000E6
:1001B000F9220008F9220008F9220008F9220008B3
:1001C000F9220008F92200080000000000000000E9
:1001D0000000000000000000F922000800000000FC
:1001E000000000000000000000000000000000000F
:1001F0000000000000000000F9220008F9220008B9
:10020000F9220008F922000800000000F922000885
:10021000F9220008F9220008F9220008F922000852
:10022000F922000800000000F92200080000000088
:10023000F9220008F922000800000000F922000855
:10024000F9220008F9220008F9220008F922000822
:10025000F9220008F9220008F9220008F922000812
:10026000F9220008F9220008F9220008F922000802
:10027000F9220008F9220008F92200080000000015
:10028000F9220008F9220008F9220008F9220008E2
:1002900000000000F9220008F92200080000000018
:1002A00000000000F9220008F9220008F9220008E5
:1002B0007D170008F9220008F92200088D170008B0
:0C02C0009D170008F9220008F922000830
:1002E00053B94AB9002908BF00281CBF4FF0FF319D
:1002F0004FF0FF3000F00CB8ADF1080C6DE904CE02
:1003000010F086FFDDF804E0DDE9022304B0704759
:10031000704700BF00000000000000000000000067
:1003200002780B78012A28BF9A4240F0D8806DE904
:10033000044540EA0104CDE902676FF0000C4FEA82
:1003400044721AB380EA010414F0070F6BD100F075
:10035000070420F0070004F0030521F007014FEA2D
:10036000C505F0E8042314F0040FF1E804670CFA63
:1003700005F462EA040266EA04060BD063EA0403A9
:10038000624667EA0407664604E000BFF0E804231B
:10039000F1E8046782FA4CF582EA0604A4FA8CF4C8
:1003A0006CBB83FA4CF583EA0705A5FA8CF595B981
:1003B00050E9022351E9026782FA4CF582EA060409
:1003C000A4FA8CF483FA4CF583EA0705A5FA8CF5B8
:1003D0002543DBD09CB92DBAB5FA85F424F0070487
:1003E00027FA04F1DDE9026723FA04F303F0FF00C2
:1003F00001F0FF01FDE80445A0EB0100704724BABD
:10040000B4FA84F424F0070426FA04F1DDE9026763
:1004100022FA04F202F0FF0001F0FF01FDE80445BA
:10042000A0EB0100704714F0030F3CD110F003045F
:1004300028D150F8082B51F8083B82FA4CF582EA93
:100440000305A5FA8CF55DB950F8042C51F8043C6D
:1004500082FA4CF582EA0305A5FA8CF5002DE8D066
:100460002DBAB5FA85F424F0070423FA04F122FA30
:1004700004F202F0FF0001F0FF01FDE80445A0EBEB
:10048000010070474FEAC40420F0030050F8082B25
:1004900021F0030151F8083B0CFA04F462EA04026B
:1004A00063EA0403C9E710F003041DD0A1EB0401C3
:1004B00020F00300E40750F8042B06D012D28B780A
:1004C0005FFAA2F4E41A06D12BB1CB785FFAB2F44A
:1004D000E41A00D133B920465DF8104B7047A2EB07
:1004E0000300704701F1040150F8042BCC0721F000
:1004F000030151F8043B48D824D222F07F4482FA09
:100500004CF594EA1325A5FA8CF50AD165B951F892
:10051000043B84EA0204B4EB036F0ED150F8042BC1
:10052000EBE74FEA132355E035F07F454DD10878CE
:10053000FDE80445C0F1000070474FEA126203F085
:10054000FF0347E002EA1C4482FA4CF594EA1345A3
:10055000A5FA8CF50AD165B951F8043B84EA020486
:10056000B4EB034F0CD150F8042BEBE74FEA1343E5
:1005700030E015EA1C4528D10B884FEA124229E0E9
:100580004FEA124203EA1C4324E002F0FF0482FA1D
:100590004CF594EA1365A5FA8CF50AD165B951F8C2
:1005A000043B84EA0204B4EB032F09D150F8042B76
:1005B000EBE74FEA13630DE015F0FF0F05D10B6871
:1005C0004FEA122223F07F4304E04FF00000FDE8E1
:1005D0000445704712BA1BBA82FA4CF482EA03044B
:1005E000A4FA8CF5B5FA85F402FA04F203FA04F3DE
:1005F0004FEA1260FDE80445A0EB1360704700BFAE
:10060000844641EA000313F003036DD1403A41D31D
:1006100051F8043B40F8043B51F8043B40F8043BDC
:1006200051F8043B40F8043B51F8043B40F8043BCC
:1006300051F8043B40F8043B51F8043B40F8043BBC
:1006400051F8043B40F8043B51F8043B40F8043BAC
:1006500051F8043B40F8043B51F8043B40F8043B9C
:1006600051F8043B40F8043B51F8043B40F8043B8C
:1006700051F8043B40F8043B51F8043B40F8043B7C
:1006800051F8043B40F8043B51F8043B40F8043B6C
:10069000403ABDD2303211D351F8043B40F8043B0C
:1006A00051F8043B40F8043B51F8043B40F8043B4C
:1006B00051F8043B40F8043B103AEDD20C3205D31C
:1006C00051F8043B40F8043B043AF9D2043208D014
:1006D000D2071CBF11F8013B00F8013B01D30B8886
:1006E00003806046704700BF082A13D38B078DD064
:1006F00010F003038AD0C3F10403D21ADB071CBF36
:1007000011F8013B00F8013B80D331F8023B20F89F
:10071000023B7BE7043AD9D3013A11F8013B00F8D8
:10072000013BF9D20B7803704B7843708B78837060
:10073000604670470348044B834202D0034B03B129
:100740001847704754080024540800240000000093
:100750000548064B1B1AD90F01EBA301491002D023
:10076000034B03B118477047540800245408002471
:100770000000000010B5064C237843B9FFF7DAFFFC
:10078000044B13B10448AFF300800123237010BD64
:1007900058080024000000006820010808B5054B37
:1007A0001BB105490548AFF30080BDE80840FFF7DD
:1007B000CFBF00BF000000005C08002468200108D3
:1007C00010B58CB0002409940A940B94242221467D
:1007D000684611F049F92548254B03604FF4101382
:1007E00043608460012303610422426104764376FE
:1007F0000223C36180F820408462C4620323036340
:10080000C463046480F8444002F0B4F910BB0023D0
:10081000099309A9154802F01DFBF0B9154B009387
:10082000062301930023029340F2FF7203920422F5
:10083000049205938DF8213069460C4801F09EFD25
:1008400070B90C2301936946084801F097FD50B92F
:100850000CB010BD00F00EFCD9E700F00BFCDDE79A
:1008600000F008FCEDE700F005FCF1E77408002457
:10087000002002401000C01070B5B8B0044600213E
:1008800033913491359136913791B82204A811F003
:10089000EBF82268374B9A4201D038B070BD4FF464
:1008A00000220023CDE9042302230693102207929D
:1008B000089309930A93C0230B930DEB020006F0F3
:1008C000E9FB002850D12C4BD3F8D82042F020026D
:1008D000C3F8D820D3F8D82002F020020192019A60
:1008E000D3F8E02042F00102C3F8E020D3F8E02082
:1008F00002F001020292029AD3F8E02042F00402D0
:10090000C3F8E020D3F8E03003F004030393039B23
:1009100020233393032634960025359533A91748B1
:1009200004F0B6FD102333933496359533A914485B
:1009300004F0AEFD1348144B036009234360856047
:10094000C5604FF4806303614FF4006343614FF46B
:1009500000538361C5610562456202F013FE30B940
:10096000084BA3659C6398E700F084FBABE700F0BD
:1009700081FBF5E7002002400044025800000258C5
:1009800000080258E40800241000024008B5084896
:10099000084B0360002303714371436183610123AA
:1009A000036202F05FFB00B908BD00F063FBFBE7E8
:1009B0005C090024004C025802680A4B9A4200D09D
:1009C000704782B0A3F50063D3F8E02042F4002220
:1009D000C3F8E020D3F8E03003F400230193019B37
:1009E00002B07047004C025800B583B0354BD3F8C5
:1009F000D82042F00102C3F8D820D3F8D82002F062
:100A000001020092009AD3F8D82042F00202C3F803
:100A1000D820D3F8D83003F002030193019B0022C1
:100A200005210B2002F0DAFA0B2002F00DFB002268
:100A300005210C2002F0D2FA0C2002F005FB002266
:100A400005210D2002F0CAFA0D2002F0FDFA002265
:100A500005210E2002F0C2FA0E2002F0F5FA002263
:100A600005210F2002F0BAFA0F2002F0EDFA002261
:100A70000521102002F0B2FA102002F0E5FA00225F
:100A80000521112002F0AAFA112002F0DDFA00225D
:100A900005212F2002F0A2FA2F2002F0D5FA002221
:100AA0000521382002F09AFA382002F0CDFA00220F
:100AB0000521392002F092FA392002F0C5FA03B07C
:100AC0005DF804FB0044025808B51548154B036057
:100AD00000238360C3600374437483740B224261F8
:100AE000012282610521C1610421016242628262A8
:100AF000C262026343638263C3632022026441646F
:100B00008364C164036541658365C36502664366AA
:100B1000816603F0EFFF00B908BD00F0ABFAFBE718
:100B20008409002400A0004008B51648164B036055
:100B300000238360C360037443748374182242618A
:100B4000012282610221C161016242628262C2624B
:100B5000026340F2064141638263C3632021016462
:100B6000042242648364C264036542658365C3658D
:100B700001664366826603F0BDFF00B908BD00F060
:100B800079FAFBE7240A002400A4004008B51648BF
:100B9000164B036000238360C36003744374837443
:100BA00018224261012282610221C1610162426216
:100BB0008262C262026340F6120141638263C363D0
:100BC00020210164042242648364C2640365426597
:100BD0008365C36501664366826603F08BFF00B9D7
:100BE00008BD00F047FAFBE7C40A002400D4004027
:100BF00030B5BBB00446002135913691379138911C
:100C00003991B82206A810F02FFF23687B4A93423F
:100C100008D07B4A934253D07A4A934200F09E8098
:100C20003BB030BD4FF400420023CDE906234FF026
:100C30008053219306A806F02DFA80BB724A1368F0
:100C400001331360012B2DD0704BD3F8E02042F01C
:100C50000802C3F8E020D3F8E03003F00803019362
:100C6000019B032335930222369200243794389354
:100C70000923399335A9664804F00AFC2246052168
:100C8000132002F0ABF9132002F0DEF92246052111
:100C9000152002F0A3F9152002F0D6F9C0E700F004
:100CA000E9F9CBE7594BD3F8EC2042F48072C3F852
:100CB000EC20D3F8EC3003F480730093009BC3E77F
:100CC0004FF400420023CDE906234FF080532193D7
:100CD00006A806F0DFF980BB4B4A136801331360A6
:100CE000012B2DD0494BD3F8E02042F00202C3F88B
:100CF000E020D3F8E03003F002030393039B60236A
:100D0000359302233693002437943894092339937A
:100D100035A9404804F0BCFB22460521142002F00E
:100D20005DF9142002F090F922460521162002F008
:100D300055F9162002F088F972E700F09BF9CBE72D
:100D4000324BD3F8EC2042F48072C3F8EC20D3F895
:100D5000EC3003F480730293029BC3E74FF400422C
:100D60000023CDE906234FF08053219306A806F017
:100D700091F990BB244A136801331360012B2FD0E3
:100D8000224BD3F8E02042F00802C3F8E020D3F869
:100D9000E03003F008030593059B4FF4405335936F
:100DA000022336930025379503233893052439947D
:100DB00035A9174804F06CFB2A4621469F2002F013
:100DC0000DF99F2002F040F92A462146A02002F0AA
:100DD00005F9A02002F038F922E700F04BF9C9E745
:100DE0000A4BD3F8EC2042F48072C3F8EC20D3F81D
:100DF000EC3003F480730493049BC1E700A000402F
:100E000000A4004000D4004080090024004402589F
:100E1000000C02580004025808B5124A002112487A
:100E20000AF088FE114B1860114A002111480AF09F
:100E300081FE114B1860114A002111480AF07AFE18
:100E4000104B1860104A002110480AF073FE104B36
:100E50001860104A002110480AF06CFE0F4B186011
:100E600008BD00BF60210108E9E800086C0B002400
:100E70001821010861FF0008640B00243C210108CF
:100E8000F1FF0008680B00248421010865E80008D0
:100E9000700B0024A821010805E90008740B002448
:100EA00000B58DB000230793089309930A930B9321
:100EB0002A4BD3F8E02042F01002C3F8E020D3F828
:100EC000E02002F010020192019AD3F8E02042F0F3
:100ED0008002C3F8E020D3F8E02002F08002029202
:100EE000029AD3F8E02042F00402C3F8E020D3F8DD
:100EF000E02002F004020392039AD3F8E02042F0CB
:100F00000102C3F8E020D3F8E02002F001020492CD
:100F1000049AD3F8E02042F00202C3F8E020D3F8AC
:100F2000E02002F002020592059AD3F8E02042F098
:100F30000802C3F8E020D3F8E03003F0080306937A
:100F4000069B4FF4004307930123099307A9044824
:100F500004F09EFA0DB05DF804FB00BF0044025897
:100F60000000025808B51548154B036003F10453FF
:100F7000A3F54003A3F68E13436000238360012290
:100F8000C260036143618361C361036204F098FB43
:100F900050B90021094804F0F1FB40B9002107488D
:100FA00004F01AFC30B908BD00F064F8F1E700F075
:100FB00061F8F3E700F05EF8F5E700BF780B002476
:100FC0000058004010B5B6B004460021319132916E
:100FD000339134913591B82202A810F045FD226872
:100FE0001B4B9A4201D036B010BD08220023CDE938
:100FF000022302A806F04EF838BB164CD4F8E030B5
:1010000043F00203C4F8E030D4F8E03003F0020308
:101010000093009B4FF440633193122332930023DB
:10102000339334930423359331A90B4804F030FAF9
:10103000D4F8E83043F48003C4F8E830D4F8E8305A
:1010400003F480030193019BCDE700F013F8D4E78C
:1010500000580040004402580004025808B50268D5
:10106000034B9A4200D008BD01F076F9FBE700BFC0
:101070000020004072B6FEE700B59DB04C22002172
:1010800009A810F0F1FC2022002101A810F0ECFCCE
:10109000022005F01FF900230093234B9A6922F4E4
:1010A00040429A619B6903F440430093009B1E4BAE
:1010B0009B6913F4005FFAD0212309934FF4803326
:1010C0000A9301220F920223129313930321149186
:1010D0004421159116920522179218930C23199307
:1010E00000231A934FF4C0531B9309A805F01CF971
:1010F000A8B93F23019303210291002303930823FE
:1011000004934023059306934FF48062079208935B
:1011100001A805F0F9FC20B91DB05DF804FBFFF74C
:10112000A9FFFFF7A7FF00BF0048025808B53C4BD6
:101130005B6913F4003F13D1BFF34F8FBFF36F8F81
:10114000374B0022C3F85022BFF34F8FBFF36F8F8E
:101150005A6942F400325A61BFF34F8FBFF36F8F69
:101160002F4B5B6913F4803F27D12D4B0022C3F82E
:101170008420BFF34F8FD3F88040C4F34E3000E09B
:101180001846C4F3C90243F6E07303EA401343EA86
:1011900082732349C1F860321346013A002BF2D121
:1011A000431E0028ECD1BFF34F8F4B6943F48033CB
:1011B0004B61BFF34F8FBFF36F8F01F09FF8FFF7C5
:1011C0005BFFFFF76DFEFFF70FFCFFF7ADFCFFF7CE
:1011D000DDFC00F03BFC00F079FDFFF775FCFFF74C
:1011E000D5FB00F01FF800F02DFDFFF7BBFE00F06F
:1011F0000FFE00F0A5FD00F0D7FD00F051F800F063
:10120000DDFCFFF7DDFA00F07BF800F08DFC0DF05F
:10121000DDFA0AF061FCFFF7FFFD0AF06FFCFEE764
:1012200000ED00E008B50648064B0360002343606C
:1012300007F03CFA00B908BDFFF71CFFFBE700BF51
:10124000CC0B00240018024810B5B0B00446B822F8
:10125000002102A810F008FC22680F4B9A4201D02E
:1012600030B010BD4FF400320023CDE9022302A8B4
:1012700005F010FF68B9094BD3F8DC2042F04002BA
:10128000C3F8DC20D3F8DC3003F040030193019B6A
:10129000E6E7FFF7EFFEEEE70018024800440258C9
:1012A00008B51548154B03604FF4800343600023D5
:1012B00083600722C2604FF0007202614FF08072BB
:1012C00042614FF0806282614FF08042C2610362EE
:1012D00043628362C36242638363C36303644364A0
:1012E0008364C36403654365836507F0BDFA00B991
:1012F00008BDFFF7BFFEFBE7D00C0024003800401C
:1013000008B51648164B03604FF4800343604FF452
:10131000003383600723C360002303614FF08072B2
:1013200042614FF0806282614FF08052C26103627D
:1013300043628362C3624FF0804242638363C3634C
:10134000036443648364C36403654365836507F092
:101350008BFA00B908BDFFF78DFEFBE7580D00249E
:1013600000140058F0B5BBB0044600213591369109
:10137000379138913991B82206A810F075FB23688F
:101380006D4A934205D06D4A934200F08B803BB08A
:10139000F0BD4FF480520023CDE9062306A805F0E6
:1013A00079FE002875D1664BD3F8E82042F48042DC
:1013B000C3F8E820D3F8E82002F480420092009AB3
:1013C000D3F8E02042F00402C3F8E020D3F8E02094
:1013D00002F004020192019AD3F8E02042F00202E6
:1013E000C3F8E020D3F8E03003F002030293029B3D
:1013F000062335930227369700253795389505261D
:10140000399635A94F4804F043F84FF4005335930B
:10141000369737953895399635A94B4804F038F802
:101420004A484B4B0360272343608560C5604FF4F7
:101430008063036145618561C5614FF44033036298
:10144000456202F09FF838BB404BE3679C6341481C
:10145000414B036028234360402383600023C36023
:101460004FF48062026143618361C3614FF4403293
:101470000262436202F086F888B9364BA3679C6328
:1014800000220521242001F0A9FD242001F0DCFD2B
:101490007DE7FFF7EFFD86E7FFF7ECFDD4E7FFF709
:1014A000E9FDEAE74FF480420023CDE9062306A8D0
:1014B00005F0F0FD00283BD1214BD3F8F42042F099
:1014C0002002C3F8F420D3F8F42002F020020392A3
:1014D000039AD3F8E02042F00102C3F8E020D3F8E9
:1014E000E02002F001020492049AD3F8E02042F0D6
:1014F0000202C3F8E020D3F8E03003F002030593C2
:10150000059B802335930226369600243794389421
:101510000825399535A9114803F0BAFF3595369657
:1015200037943894399535A9074803F0B1FF2EE771
:10153000FFF7A0FDC0E700BF0038004000140058CE
:10154000004402580008025800040258E00B00242E
:10155000B8000240580C0024100402400000025859
:1015600000B583B00A4BD3F8F42042F00202C3F86E
:10157000F420D3F8F43003F002030193019B00221E
:101580000F216FF0010001F029FD03B05DF804FBAD
:10159000004402580F2801D90120704710B58AB0C5
:1015A0000446002201462D2001F018FD2D2001F0F7
:1015B0004BFD1A4B1C601A4BD3F8E82042F48072A2
:1015C000C3F8E820D3F8E83003F480730093009B5D
:1015D00001A902A805F028FC079BBBB905F000FC97
:1015E00003461048A0FB03239B0C013B0E480F4A07
:1015F000026040F2E732C26043600023036183600F
:1016000007F028FE30B101200AB010BD05F0E8FB5C
:101610004300E6E7044807F06DFCF5E70C00002402
:101620000044025883DE1B43E00D002400200040EC
:10163000FEE7FEE7FEE7FEE7FEE7704708B5024873
:1016400002F08EFD08BD00BFE408002408B5024882
:1016500002F086FD08BD00BFC810002408B502488E
:1016600002F07EFD08BD00BF4011002408B502480D
:1016700002F076FD08BD00BFD80F002408B502486F
:1016800002F06EFD08BD00BF5010002408B50248EE
:1016900002F066FD08BD00BFB811002408B502487D
:1016A00002F05EFD08BD00BF3012002408B50248FC
:1016B00003F060FD08BD00BF8409002408B502489E
:1016C00003F058FD08BD00BF240A002408B50248F5
:1016D00003F050FD08BD00BF8409002408B502488E
:1016E00003F048FD08BD00BF240A002408B50248E5
:1016F00007F092F908BD00BFD00C002408B50248DD
:1017000008F0FAF808BD00BFA812002408B5024886
:1017100007F043FC08BD00BFE00D002408B50248F7
:1017200002F01EFD08BD00BFE00B002408B5024812
:1017300008F0E2F808BD00BFD013002408B5024845
:1017400002F00EFD08BD00BF580C002408B5024889
:1017500002F006FD08BD00BF600F002408B5024876
:1017600004F0B4FA08BD00BF641F012408B50248A4
:1017700008F0C2F808BD00BF6414002408B5024890
:1017800008F0BAF808BD00BF3C13002408B50248B1
:1017900003F0F0FC08BD00BFC40A002408B50248ED
:1017A00003F0E8FC08BD00BFC40A002410B50346DE
:1017B0000C4A0D490D48006840B10C4800680344CC
:1017C000521A934206D8094A136010BD0748084CC4
:1017D0000460F2E710F0ECF90C2303604FF0FF30E7
:1017E000F3E700BF00000524002000002C0E0024B9
:1017F000682C0124224AD2F8883043F47003C2F8DE
:101800008830204B1B6803F00F03062B06D81D4AB7
:10181000136823F00F0343F0070313601A4B1A6891
:1018200042F001021A6000221A611968174A0A4040
:101830001A60144B1B6813F0080F06D0114A136886
:1018400023F00F0343F0070313600F4B00229A614C
:10185000DA611A620E4999620E49D9620E4919631A
:101860005A639963DA6319645A64196821F4802110
:1018700019601A66094B43F2D2021A60704700BF22
:1018800000ED00E000200052004402587FEDF6EA2F
:10189000000202020000FF0180020101004000522C
:1018A00084B00368224A934216D0B3F1804F22D00D
:1018B000204A93422DD0204A93421AD11F4BD3F88D
:1018C000E82042F04002C3F8E820D3F8E83003F003
:1018D00040030393039B0CE0184BD3F8F02042F035
:1018E0000102C3F8F020D3F8F03003F001030093B5
:1018F000009B04B07047114BD3F8E82042F001027E
:10190000C3F8E820D3F8E83003F001030193019B0A
:10191000EFE70A4BD3F8E82042F00202C3F8E820D0
:10192000D3F8E83003F002030293029BE1E700BF23
:10193000000001400004004000180040004402582C
:1019400000B58BB000230593069307930893099382
:101950000368374A93420BD0B3F1804F21D0354A08
:10196000934236D0344A934249D00BB05DF804FB21
:10197000324BD3F8E02042F01002C3F8E020D3F855
:10198000E03003F010030193019B4FF408530593DB
:10199000022306930123099305A9294803F078FD42
:1019A000E3E7264BD3F8E02042F00102C3F8E02041
:1019B000D3F8E03003F001030293029B0523059363
:1019C000022306930123099305A91E4803F060FD35
:1019D000CBE71A4BD3F8E02042F00202C3F8E02034
:1019E000D3F8E03003F002030393039B0223059333
:1019F0000693099305A9144803F04AFDB5E70F4B78
:101A0000D3F8E02042F00202C3F8E020D3F8E0303F
:101A100003F002030493049B4FF400430593022355
:101A20000693099305A9084803F032FD9DE700BF1E
:101A3000000001400004004000180040004402582B
:101A400000100258000002580004025810B598B067
:101A500000241594169417940E940F9410941194D6
:101A60001294139414943422214601A80FF0FCFF21
:101A70002B482C4B03604FF489734360846044F619
:101A80001F63C36004614461846107F013FC002894
:101A900037D1002315931693179315A9204807F003
:101AA000EBFD002830D160230E9300220F9210929C
:101AB00011921292139214920EA9194807F074FC15
:101AC00028BB08220EA9164807F06EFC10BB0023A5
:101AD000019302930393049305934FF400520692EB
:101AE000079309934FF000720A920B930D9301A98B
:101AF0000B4807F019FE80B90948FFF721FF18B01D
:101B000010BDFFF7B7FAC4E7FFF7B4FACBE7FFF76A
:101B1000B1FAD6E7FFF7AEFAD9E7FFF7ABFAEBE792
:101B2000300E00240000014000B58BB00023079365
:101B300008930993009301930293039304930593ED
:101B400006931D484FF0804202604FF48972426054
:101B5000836044F61F62C2600361836107F0AAFBE1
:101B6000F0B900230793099307A9134807F084FDF0
:101B7000C8B9602300930022019202920492694640
:101B80000D4807F011FC88B9082269460A4807F099
:101B90000BFC70B90848FFF7D3FE0BB05DF804FBEF
:101BA000FFF768FADDE7FFF765FAE2E7FFF762FAA9
:101BB000EAE7FFF75FFAEDE7C80E002400B58BB047
:101BC00000230793089309930093019302930393CF
:101BD0000493059306931948194A02604FF48972D9
:101BE0004260836042F20F72C260036180238361AE
:101BF00007F060FBC8B900230793099307A90F48B2
:101C000007F03AFDA0B960230093002301930293EB
:101C100004930C226946094807F0C6FB58B90748E7
:101C2000FFF78EFE0BB05DF804FBFFF723FAE2E747
:101C3000FFF720FAE7E7FFF71DFAF0E7140F00249B
:101C40000004004000B58BB000230793089309936C
:101C50000093019302930393049305930693194809
:101C6000194A02604FF489724260836040F2E732A1
:101C7000C2600361836107F01DFBC8B900230793AD
:101C8000099307A90F4807F0F7FCA0B96023009358
:101C9000002301930293049304226946094807F044
:101CA00083FB58B90748FFF74BFE0BB05DF804FB08
:101CB000FFF7E0F9E2E7FFF7DDF9E7E7FFF7DAF929
:101CC000F0E700BF7C0E00240018004008B519485A
:101CD000194B0360194B43604FF48053836000231A
:101CE000C3604FF480620261042242618361C36178
:101CF00003624362836208F0A8FC70B900210D48BA
:101D000008F09CFD60B900210A4808F0BCFD50B9FC
:101D1000084808F074FD48B908BDFFF7ABF9EDE7D6
:101D2000FFF7A8F9EFE7FFF7A5F9F1E7FFF7A2F949
:101D3000F2E700BFD013002400500040A08601004D
:101D400008B51748174B03604FF4E1334360002395
:101D50008360C36003610C2242618361C3610362DB
:101D60004362836208F071FC70B900210C4808F0EE
:101D700065FD60B900210A4808F085FD50B90848A2
:101D800008F03DFD48B908BDFFF774F9EDE7FFF72E
:101D900071F9EFE7FFF76EF9F1E7FFF76BF9F2E79B
:101DA000641400240078004008B51748174B0360FE
:101DB0004FF4E133436000238360C36003610C226E
:101DC00042618361C36103624362836208F03DFC48
:101DD00070B900210C4808F031FD60B900210A48B3
:101DE00008F051FD50B9084808F009FD48B908BD90
:101DF000FFF740F9EDE7FFF73DF9EFE7FFF73AF9B5
:101E0000F1E7FFF737F9F2E7A812002400100140CC
:101E100008B51748174B03604FF4E13343600023C4
:101E20008360C36003610C2242618361C36103620A
:101E30004362836208F009FC70B900210C4808F085
:101E4000FDFC60B900210A4808F01DFD50B90848A2
:101E500008F0D5FC48B908BDFFF70CF9EDE7FFF72E
:101E600009F9EFE7FFF706F9F1E7FFF703F9F2E702
:101E70003C130024001C0140F0B5BFB00446002113
:101E800039913A913B913C913D91B8220AA80FF0CB
:101E9000EBFD2368AB4A93420CD0AB4A934275D01A
:101EA000AA4A934200F0E180A94A934200F073816C
:101EB0003FB0F0BD02220023CDE90A230AA805F0B5
:101EC000E9F800285CD1A34BD3F8E82042F4801253
:101ED000C3F8E820D3F8E82002F480120192019AB6
:101EE000D3F8E02042F00402C3F8E020D3F8E02069
:101EF00002F004020292029AD3F8E02042F00802B3
:101F0000C3F8E020D3F8E03003F008030393039B09
:101F10004FF48053399302273A9700253B953C951F
:101F200008263D9639A98C4803F0B2FA0423399368
:101F30003A973B9503233C933D9639A9874803F094
:101F4000A7FA8748874B0360412343608560C560DB
:101F50004FF48063036145618561C5610562456237
:101F600001F010FB78B97E4BC4F880309C630022EE
:101F70000521352001F032F8352001F065F897E7AA
:101F8000FFF778F89FE7FFF775F8ECE702220023E8
:101F9000CDE90A230AA805F07DF800285CD16D4B35
:101FA000D3F8E82042F08042C3F8E820D3F8E820D4
:101FB00002F080420492049AD3F8E02042F010022A
:101FC000C3F8E020D3F8E03003F010030593059B3D
:101FD0004FF4C073399302233A9300253B953C9507
:101FE00007233D9339A9604803F052FA5F48604BDC
:101FF00003604F2343608560C5604FF480630361D5
:1020000045618561C5610562456201F0BBFA30BB7F
:10201000564BC4F880309C635648574B036050239E
:102020004360402383600023C3604FF480620261F9
:1020300043618361C3610362436201F0A3FA88B91B
:102040004C4BE3679C6300220521522000F0C6FF41
:10205000522000F0F9FF2BE7FFF70CF89FE7FFF79E
:1020600009F8D5E7FFF706F8EAE701220023CDE9F2
:102070000A230AA805F00EF800285CD1354BD3F8E6
:10208000F02042F01002C3F8F020D3F8F02002F064
:1020900010020692069AD3F8E02042F00102C3F83B
:1020A000E020D3F8E03003F001030793079B4FF4DF
:1020B000C063399302233A9300253B953C9507234F
:1020C0003D9339A92D4803F0E3F92D482D4B0360CA
:1020D000292343608560C5604FF4806303614561D7
:1020E0008561C5610562456201F04CFA30BB244B45
:1020F000C4F880309C632448244B03602A23436047
:10210000402383600023C3604FF480620261436117
:102110008361C3610362436201F034FAC0BB1A4BAE
:10212000E3679C6300220521252000F057FF25204E
:1021300000F08AFFBCE6FEF79DFF9FE7FEF79AFFDF
:10214000D5E700BF0050004000780040001001407B
:10215000001C01400044025800080258000C0258BC
:10216000600F00242804024000100258D80F0024F9
:102170005800024050100024700002400000025835
:10218000B81100248800024030120024A000024050
:10219000FEF770FFC3E701220023CDE90A230AA856
:1021A00004F078FF00286AD1394BD3F8F02042F0D0
:1021B0008002C3F8F020D3F8F02002F080020892E9
:1021C000089AD3F8E02042F01002C3F8E020D3F8D8
:1021D000E03003F010030993099B0423399302278D
:1021E0003A9700253B953C953D932A4E39A93046B8
:1021F00003F04EF9082339933A973B953C950B230E
:102200003D9339A9304603F043F92348234B03603B
:10221000762343608560C5604FF480630361456148
:102220008561C5614FF400330362456201F0AAF98C
:1022300040BB194BC4F880309C631948194B0360AC
:1022400077234360402383600023C3604FF48062A0
:10225000026143618361C3614FF4003202624362F1
:1022600001F090F988B90E4BE3679C6300220521C9
:102270009C2000F0B3FE9C2000F0E6FE18E6FEF77E
:10228000F9FE91E7FEF7F6FED3E7FEF7F3FEEAE785
:102290000044025800100258C810002428000240D0
:1022A0004011002440000240DFF834D0FFF7A2FACA
:1022B0000C480D490D4A002302E0D458C4500433A1
:1022C000C4188C42F9D30A4A0A4C002301E0136077
:1022D0000432A242FBD30FF071FCFEF727FF7047D8
:1022E0000000052400000024540800241C2D0108CF
:1022F00058080024642C0124FEE7000010B50320D8
:1023000000F05AFE04F006FB0F498B69C3F3032368
:102310000E4AD35C03F01F03D8408B6903F00F0310
:10232000D35C03F01F0320FA03F3094A1360094B3F
:1023300018600F20FFF72EF910B10124204610BDC0
:102340000446FFF70DF9F9E700440258CC210108D3
:102350000400002400000024034B1B78034A11688A
:102360000B441360704700BF08000024F8140024D9
:10237000014B1868704700BFF8140024F0B583B013
:102380000022019290F85C20012A00F0428303466B
:10239000012280F85C200268906810F0040F09D0D8
:1023A0001A6E42F020021A660120002283F85C2097
:1023B00003B0F0BD9B4882420BD00868C0F3130401
:1023C000002C52D1C0F3846001248440D0692043A2
:1023D000D0611D684C683035220A920002F00C0270
:1023E000A85804F01F0E1F2404FA0EF420EA04007B
:1023F0000C68C4F3846C0CFA0EFC40EA0C00A85084
:102400001C68A26812F0040200D00122A06810F03B
:10241000080000D00120024333D01A68906810F001
:10242000010F40F0F2820868CD687E4CA24200F0B5
:102430009C81D2F8C040C0F3130624EA060405F0DC
:102440001805794E26FA05F52840C0F313002043FD
:10245000C2F8C000C868754A904200F098810A68C6
:10246000002AC0F2518200209FE790FAA0F030B11C
:10247000B0FA80F000F01F0001248440A6E720207D
:10248000F8E70F688D681434780E800000F00400BF
:102490002658C7F3045E4FF0070C0CFA0EFC26EA30
:1024A0000C0C05FA0EF54CEA0505255018685D4C34
:1024B000A04211D05E4C246804F07044B4F1805FF7
:1024C0003FD0C46814F0100F42D14C69C568C5F301
:1024D00082056D00AC4005E04C69C568C5F3C105D7
:1024E0006D00AC400D69042D3AD14E4A904200F087
:1024F000A180026E02F0F8420C68B2EB846F00F02B
:1025000025811868426E02F0F8420C68B2EB846FC5
:1025100000F021811868826E02F0F8420C68B2EB7C
:10252000846F00F01D811868C26E02F0F8420C68DA
:10253000B2EB846F7FF471AFC26E22F00042C266CC
:102540006BE74C69C568C5F382056D00AC40C9E70F
:102550004C69C568AD0805F004056D00AC40C1E7E5
:102560000E6800F16007DFF8BCC0604529D057F85D
:10257000250000F0004006F0F8463443044347F8D5
:1025800025401868274CA04225D00E6991F82140BB
:10259000012C40D01546603050F8264024F000440D
:1025A0002C4340F826401D680C69087E012835D070
:1025B000286920F4F04004F01F04A24002432A617D
:1025C0002BE757F8250006F0F846344344F0004462
:1025D00047F82540D5E70E69CC69603050F82650A1
:1025E00025F080752C4340F8264018680D6991F855
:1025F0002040012C0CD00B4CA0427FF40EAF603079
:1026000050F8254024F00074224340F8252004E7C8
:102610004FF00072EFE74FF00045BCE74FF4006267
:10262000C6E700BF00600258FFFF0F000000FF4731
:102630000010005C026E046EC4F384640A68C2F386
:102640001305002D36D1C2F3846294423AD01C683F
:10265000626E606EC0F384600A68C2F31305002DD9
:102660003DD1C2F38462904241D01C68A26EA06E3C
:10267000C0F384600A68C2F31305002D44D1C2F38D
:102680008462904248D01C68E26EE06EC0F38460C1
:102690000A68C2F31305002D4BD1C2F38462904245
:1026A0007FF4BBAE964A94424BD0E26E22F00042D9
:1026B000E266B2E692FAA2F212B1B2FA82F2C4E78C
:1026C0002022C2E78E4A904204D0026E22F00042DD
:1026D0000266BCE7026E22F000420266B7E792FA99
:1026E000A2F212B1B2FA82F2BDE72022BBE7844A1D
:1026F000944204D0626E22F000426266B5E7626ED8
:1027000022F000426266B0E792FAA2F212B1B2FA87
:1027100082F2B6E72022B4E7794A944204D0A26E4E
:1027200022F00042A266AEE7A26E22F00042A2664C
:10273000A9E792FAA2F212B1B2FA82F2AFE720222E
:10274000ADE7E26E22F00042E26666E6026E22F03B
:1027500000420266D5E6426E22F000424266D9E6A9
:10276000826E22F000428266DDE6D2F8B060C0F3ED
:10277000130426EA040605F01805624C24FA05F550
:102780002840C0F313003043C2F8B00062E61C6872
:102790000A68C2F31305002D34D1900E013000F009
:1027A0001F0009288CBF00200120002861D0002DC7
:1027B00037D1900E0130800600F0F840002D3CD15A
:1027C000960E013606F01F070126BE403043002D4D
:1027D00041D1920E013202F01F0202EB42021205B9
:1027E000024388681434550EAD0005F0040566599F
:1027F000C2F304520727974026EA07069040304369
:1028000060512CE692FAA2F048B1B0FA80F00130A3
:1028100000F01F0009288CBF00200120C5E7202000
:10282000F5E792FAA2F030B1B0FA80F001308006FC
:1028300000F0F840C2E72020F8E792FAA2F646B18D
:10284000B6FA86F6013606F01F06012707FA06F6E5
:10285000BCE72026F6E792FAA2F242B1B2FA82F27F
:10286000013202F01F0202EB42021205B8E72022F9
:10287000F6E7CDB9900E0130800600F0F840FDB9C2
:10288000960E013606F01F070126BE4030432DBBD1
:10289000920E013202F01F0202EB42021E3A1205B2
:1028A00042F0007202439CE792FAA2F030B1B0FA13
:1028B00080F00130800600F0F840E0E72020F8E7E3
:1028C00092FAA2F646B1B6FA86F6013606F01F066F
:1028D000012707FA06F6D9E72026F6E792FAA2F2D0
:1028E0005AB1B2FA82F2013202F01F0202EB420246
:1028F0001E3A120542F00072D4E72022F3E700BF2F
:1029000000600258FFFF0F0019684348434CA14282
:1029100018BF81420CBF0120002021D1404EB56874
:1029200005F0E077F0B13C48806810F0010000D07D
:1029300001203A4CA46814F0010400D00124204383
:102940000CBF01200020002859D03648824212D006
:102950003548824231D0354882423FD0002024E5BC
:10296000334EDCE73348806810F0010000D00120CE
:1029700080F00100E7E715F4000FE9D12D4A9142FC
:1029800001D0002011E547F40002B16821F0E071A8
:102990000A43B260284A126892092849A1FB021230
:1029A000920901325200019202E0019A013A019229
:1029B000019A002AF9D10020F7E415F0807FCAD1EE
:1029C0001C4A914201D00020EFE447F08072B168C8
:1029D00021F0E0710A43B2600020E6E415F4800FB4
:1029E00015D1144A914201D00020DEE447F4800260
:1029F000B16821F0E0710A43B2600020D5E41A6E9C
:102A000042F020021A660120CFE40020CDE400202D
:102A1000CBE40220CCE400BF0020024000210240B1
:102A200000230240000052C7000021C3000084CBF5
:102A3000006302580060025800000024632D3E0528
:102A400010B5044603684449444A934218BF8B4278
:102A50001CD1434B9B6813F4403F14BF0123002358
:102A600013B304F09BF96368B3F5003F16D0B3F5D8
:102A7000403F17D0B3F5803F10D03A4B98424ED824
:102A80002268936823F44073936010BD364B9B68B3
:102A900013F4403F14BF01230023E1E71B0CB0FBFC
:102AA000F3F0EAE78008E8E74FF40020002105F0A2
:102AB000FDFA6368B3F5101F2DD022D8B3F5E01FDF
:102AC00027D004D9B3F5001FD7D14009D5E7B3F516
:102AD000801F0DD006D9B3F5A01F09D0B3F5C01FD4
:102AE00006D0CAE7B3F5002F02D0B3F5402F04D1CA
:102AF0009B0C5B00B0FBF3F0BFE7B3F5802FF7D082
:102B0000BBE7B3F5201F08D0B3F5301FB5D1000ADD
:102B1000B3E70009B1E78009AFE7C009ADE7134BA0
:102B2000984207D82268936823F4407343F4807373
:102B30009360AAE70E4B984207D82268936823F463
:102B4000407343F4007393609FE72268936843F4F3
:102B50004073936099E700BF0020024000210240CB
:102B60000023024021BCBE000063025841787D0171
:102B700081F0FA0230B583B000230193002800F001
:102B800067810446036EEBB123689A6812F0005F18
:102B900003D099689C4A0A409A6023689A6812F0A8
:102BA000805F1CD19968994A0A4042F080529A602D
:102BB000974B1B689B09974AA2FB03239B09013390
:102BC000019309E0FDF758FE0023636684F85C304A
:102BD000DAE7019B013B0193019B002BF9D12368AC
:102BE0009A6812F0805F40F0A280226E42F01002DC
:102BF0002266626E42F00102626601259A6812F056
:102C0000040200D00122216E11F0100F40F0188153
:102C1000002A40F01581216E21F4817141F00201FA
:102C20002166996811F0010F21D17B487B498B42C5
:102C300018BF83420CBF012300237AD1816811F0B1
:102C4000010100D001217548806810F0010000D01A
:102C5000012001430CBF0121002141B1002B71D0A3
:102C60006F486368816821F47C110B43836021689D
:102C70006C4B994268D0627EE36B43EA4232A368B0
:102C80001A4394F8203042EA034294F82030012B92
:102C900074D0A36A23B103F47873E06A03431A4340
:102CA000604B99426FD0C8685F4B03401A43CA60BB
:102CB00021688B6813F0040300D001238A6812F0A6
:102CC000080200D00122134322D1564B994267D00B
:102CD000227E236B43EA8232C868544B034013437D
:102CE000CB6094F84430012B61D02268136923F043
:102CF000010313612268136923F07043216C0B43B5
:102D000013612268474B9A4202D02046FFF798FE93
:102D10002369012B6FD02268136B23F00F03136319
:102D2000236E23F0030343F0010323668DE00025A7
:102D300064E73C49896811F0010100D0012181F06C
:102D400001018AE73A488CE7607EE36B43EA40334F
:102D5000E0680343A068082808D00C2805D01C2888
:102D60000AD0182802D1024600E008221A4394F83B
:102D7000203042EA034288E71022F7E7636A013B0A
:102D800042EA434285E7C8682A4B03401A43CA60B7
:102D90002268136923F04063616B0B43136187E77B
:102DA000227E94F838305B0043EA823294E721684F
:102DB0001C4B994210D00A691F4B1340A26C501E45
:102DC000E26C42EA0042206D0243606D024313430D
:102DD00043F001030B618DE70A69184B1340A26CA5
:102DE000E06C0243206D0243606D0243134343F0E5
:102DF00001030B617EE721680B6B23F00F03E2698F
:102E0000013A13430B638BE7C0FFFF5FC0FFFF6F07
:102E100000000024632D3E050020024000210240F6
:102E2000002302400060025803C0F0FFFCBFFFFF18
:102E3000006302580740F0FF1EF800FC1FF800FC7A
:102E4000236E43F0100323660125284603B030BDEE
:102E50000125FAE790F85C20012A00F0A18030B447
:102E60009CB00346012280F85C200022189219923F
:102E700000684C4A904242D000220092009A002AF8
:102E800041D0926812F0040200D00122846814F04C
:102E9000040F76D1002A74D1424C434A904218BFA5
:102EA000A04239D102F50072086800283FD090682E
:102EB00020F440404C68204390601868394D3A4CEB
:102EC000A04218BFA84229D1A86810F0010000D084
:102ED0000120354CA46814F0010400D001242043E3
:102EE0000CBF01200020002856D094682F482040B5
:102EF0000C688968214308439060002046E002F591
:102F000080720092BAE71A6E42F020021A6600221E
:102F100083F85C2001203CE0254AC5E7254880680D
:102F200010F0010000D0012080F00100DBE7916883
:102F300021F44041916019681A4C1B48814218BF26
:102F4000A14215D1A16811F0010100D0012116485C
:102F5000806810F0010000D0012001430CBF012166
:102F60000021D9B1906811490140916000200DE025
:102F70001049896811F0010100D0012181F001019F
:102F8000EFE71A6E42F020021A660120002283F851
:102F90005C201CB030BC70470020F7E70020F5E74C
:102FA000022070470020024000210240E0F0FFFFB5
:102FB00000630258006002580649CB6823F4E063BE
:102FC0001B041B0C000200F4E0600343024A1A4396
:102FD000CA60704700ED00E00000FA0500B5174B2D
:102FE000DB68C3F30223C3F1070CBCF1040F28BF55
:102FF0004FF0040C03F1040EBEF1060F14D9033B8D
:103000004FF0FF3E0EFA0CFC21EA0C0199400EFA3B
:1030100003F322EA03031943002807DB0901C9B2BD
:10302000074B19545DF804FB0023E9E700F00F009B
:103030000901C9B2034B1954F4E700BF00ED00E0E9
:1030400000E400E014ED00E0002807DB00F01F02C0
:10305000400901239340024A42F82030704700BFE4
:1030600000E100E0002838D010B50446437F1BB3D0
:103070000223637723791BBB2368194A5A612268AC
:10308000936823F018039360637913BB23684FF0B0
:10309000FF321A612268936823F0600361690B4371
:1030A00093602268936823F08003A1690B439360C7
:1030B00001236377002010BD0377FDF77DFCD7E780
:1030C000E268A168204600F00DF80028DCD001205D
:1030D000F1E7236822691A61DCE70120704700BF2D
:1030E000B71DC10411F0010F30D010B41F231C46CE
:1030F000013B34B103F01F0C21FA0CFC1CF0010F52
:10310000F5D0182A24D8DFE802F00F232323232345
:1031100023231D232323232323231923232323238F
:1031200023230D00062B17D80368596101688B68AB
:1031300023F018031A438A6000200AE0072BF3D912
:10314000012006E00F2BEFD9012002E0012070479B
:1031500001205DF8044B70470120FAE7F0B4876D59
:103160000468664E664DAC4218BFB44242D0183572
:10317000AC423FD01835AC423CD01835AC4239D0C7
:103180001835AC4236D01835AC4233D01835AC4285
:1031900030D005F55675AC422CD01835AC4229D04C
:1031A0001835AC4226D01835AC4223D01835AC4285
:1031B00020D01835AC421DD01835AC421AD0183585
:1031C000AC4217D04F4DAC4214D01435AC4211D0A4
:1031D0001435AC420ED01435AC420BD01435AC4291
:1031E00008D01435AC4205D01435AC4202D01435A9
:1031F000AC4207D1446E856E6560C46E14B1046F35
:10320000456F656004683D4E3D4DAC4218BFB44209
:1032100052D01835AC424FD01835AC424CD018358E
:10322000AC4249D01835AC4246D01835AC4243D0F8
:103230001835AC4240D005F55675AC423CD0183537
:10324000AC4239D01835AC4236D01835AC4233D008
:103250001835AC4230D01835AC422DD01835AC42C0
:103260002AD01835AC4227D0264E274DAC4218BF85
:10327000B44211D0254DAC420ED01435AC420BD027
:103280001435AC4208D01435AC4205D01435AC42EC
:1032900002D01435AC4224D1C46D04F01F050124C2
:1032A000AC407C60046863608368402B20D0036876
:1032B00099600368DA6014E0C46D04F01F0C3F24C9
:1032C00004FA0CF4BC6005682C6824F480242C609B
:1032D000046863608368402B05D0036899600368C5
:1032E000DA60F0BC704703689A600368D960F8E759
:1032F00003689A600368D960F3E700BF10000240DA
:1033000028000240085402581C54025830540258F5
:1033100003682749274A934218BF8B422FD018329F
:1033200093422CD01832934229D01832934226D09F
:103330001832934223D01832934220D0183293424D
:103340001DD002F55672934219D01832934216D00E
:103350001832934213D01832934210D0183293424D
:103360000DD0183293420AD01832934207D0183247
:10337000934204D023F0FF038365806D704710B43F
:10338000D9B210390C4AA2FB0142C2F302120B4C13
:10339000A25CC2655F2907D9094A1A4004328265D6
:1033A000806D5DF8044B7047054A1A408265F7E767
:1033B0001000024028000240ABAAAAAADC210108A2
:1033C00000FCFFFF83699BB9836A012B0AD0022BA3
:1033D00002D00BB100207047C36A13F0807F2AD15E
:1033E00000207047C36AB3F1C07F26D00020704729
:1033F000B3F5005F0AD0836A022B26D9032B26D1AE
:10340000C36A13F0807F24D100207047836A032BA6
:1034100003D8DFE803F01404140A00207047C36ADD
:1034200013F0807F0DD100207047C36AB3F1C07FD5
:1034300009D000207047012070470120704701200B
:10344000704701207047012070470120704700201D
:10345000704701207047000003682249224A9342C6
:1034600018BF8B4228D01432934225D01432934295
:1034700022D0143293421FD0143293421CD0143203
:10348000934219D01432934216D0DAB2103A174947
:10349000A1FB0212120916491944A8291FD9154B7C
:1034A00013449B000366144B436602F01F02012382
:1034B00003FA02F282667047DBB2083B0F4AA2FBB6
:1034C00003230F4A02EB1312920002660D4A426672
:1034D000C3F30413012202FA03F383667047083230
:1034E000DDE700BF085402581C540258ABAAAAAA30
:1034F000F0FBFDBF0082001080080240CDCCCCCC98
:10350000009600168058025801794A1E072A2CD8C6
:1035100030B40368154D164CA34218BFAB4218D007
:103520001434A34215D01434A34212D01434A3424D
:103530000FD01434A3420CD01434A34209D0143455
:10354000A34206D00B4B0B449B00C3660A4B036798
:1035500005E00A4B0B449B00C366094B036701233C
:1035600003FA02F2426730BC7047704708540258B1
:103570001C5402583F820010400902403F9600163A
:103580004059025870B50446FEF7F2FE002C00F0D8
:10359000B381054623685349534A934218BF8B426F
:1035A0000CBF0122002250D030318B424DD0183157
:1035B0008B424AD018318B4247D018318B4244D0CD
:1035C00018318B4241D018318B423ED001F55671F3
:1035D0008B423AD018318B4237D018318B4234D0DD
:1035E00018318B4231D018318B422ED018318B429A
:1035F0002BD018318B4228D018318B4225D03B4933
:103600003B4A934218BF8B4200F02E81394A9342C5
:1036100000F02A811432934200F026811432934242
:1036200000F022811432934200F01E811432934242
:1036300000F01A811432934200F016814023636532
:10364000032384F8353001204AE0022184F8351044
:10365000002184F834107ABB274A93422CD01832C8
:10366000934229D01832934226D01832934223D065
:103670001832934220D0183293421DD002F5567270
:10368000934219D01832934216D01832934213D075
:103690001832934210D0183293420DD01832934210
:1036A0000AD01832934207D01832934204D01A68D5
:1036B00022F001021A6003E01A6822F001021A6087
:1036C00023681A6812F0010F18D0FEF751FE431B51
:1036D000052BF5D920236365032384F835300120B9
:1036E00070BD00BF1000024028000240085402587C
:1036F0001C54025830540258400002401A687F4857
:103700001040A168E2680A4321690A4361690A43DB
:10371000A1690A43E1690A43216A0A430243616AD3
:10372000042900F096806168A1F12905A1F13F000C
:10373000032888BF052D0AD9A1F14700012806D921
:10374000A1F14F00032802D97439032901D842F4AA
:1037500080121A602668756925F00705636A1D43A3
:10376000042B08D1A36A1D43E36A23B12046FFF767
:1037700029FE002872D175612046FFF7C9FDE36D6F
:1037800003F01F023F239340836023685C495D4A36
:10379000934218BF8B4242D0183293423FD0183226
:1037A00093423CD01832934239D01832934236D0EB
:1037B0001832934233D01832934230D002F5567209
:1037C00093422CD01832934229D01832934226D0FB
:1037D0001832934223D01832934220D018329342A9
:1037E0001DD0183293421AD01832934217D0464A4D
:1037F000934214D01432934211D0143293420ED01B
:10380000143293420BD01432934208D014329342B4
:1038100005D01432934202D01432934213D1204681
:10382000FFF71AFEA368802B59D0236E22791A6005
:10383000636EA26E5A606368013B072B52D9002366
:10384000E3662367636700206065012384F83530F1
:1038500046E7E16A206B01430A4364E7402363655E
:10386000012084F835003BE7022284F8352000224D
:1038700084F834201A6825491140A268402A2CD0C7
:10388000802A27D00022E06842EAD002206942EA7A
:10389000D002606942EAD002A06942EAD002E0693F
:1038A00042EAD002206A42EA10120A431A602268F1
:1038B000174B1344174AA2FB03231B099B00E36524
:1038C0002046FFF725FDE26D02F01F0101228A402C
:1038D00042605AE74FF48042D5E71022D3E7002335
:1038E0006360A2E72046FFF70FFEE36E00221A6036
:1038F000236F626F5A60A6E70120F1E63F8010FE59
:103900001000024028000240085402580F00FEFF39
:10391000F8ABFDA7CDCCCCCC002800F03E8170B533
:10392000044690F83400012800F03981012084F821
:10393000340094F83500C0B2012807D04FF400637A
:103940006365002384F83430012070BD022084F8C0
:103950003500002060652068924E934DA84218BF44
:10396000B0422FD01835A8422CD01835A84229D003
:103970001835A84226D01835A84223D01835A842B9
:1039800020D01835A8421DD005F55675A84219D08B
:103990001835A84216D01835A84213D01835A842B9
:1039A00010D01835A8420DD01835A8420AD01835C5
:1039B000A84207D01835A84204D0056825F00105B3
:1039C000056003E0056825F0010505602046FFF766
:1039D000C5FB23687349744A934218BF8B4238D0A1
:1039E0001832934235D01832934232D01832934273
:1039F0002FD0183293422CD01832934229D018324B
:103A0000934226D002F55672934222D01832934246
:103A10001FD0183293421CD01832934219D018325A
:103A2000934216D01832934213D01832934210D0DA
:103A3000183293420DD01A6822F00E0242F00A02A8
:103A40001A60236C93B12268136843F00403136077
:103A50000CE01A6822F01E0242F016021A60236C73
:103A600023B12268136843F00803136023684D49AB
:103A70004D4A934218BF8B4242D0183293423FD0F6
:103A8000183293423CD01832934239D018329342C4
:103A900036D01832934233D01832934230D002F5E8
:103AA000567293422CD01832934229D01832934246
:103AB00026D01832934223D01832934220D01832A5
:103AC00093421DD0183293421AD01832934217D025
:103AD000364A934214D01432934211D01432934296
:103AE0000ED0143293420BD01432934208D01432C9
:103AF000934205D01432934202D0143293420ED135
:103B0000236E1A6812F4803F03D01A6842F4807260
:103B10001A60E36E1BB11A6842F480721A6023685F
:103B20002049214A934218BF8B4230D01832934229
:103B30002DD0183293422AD01832934227D018320F
:103B4000934224D01832934221D0183293421ED08F
:103B500002F5567293421AD01832934217D0183297
:103B6000934214D01832934211D0183293420ED09F
:103B7000183293420BD01832934208D01832934235
:103B800005D01A6842F001021A600020DDE61A68CA
:103B900042F001021A600020D7E60120704702209F
:103BA000D3E600BF1000024028000240085402582B
:103BB00070B50446FEF7DCFB002C00F09181054651
:103BC00094F83530DBB2022B06D0802363650023E6
:103BD00084F83430012070BD23688C498C4A9342AC
:103BE00018BF8B4230D0183293422DD018329342F6
:103BF0002AD01832934227D01832934224D0183258
:103C0000934221D0183293421ED002F5567293424D
:103C10001AD01832934217D01832934214D0183267
:103C2000934211D0183293420ED0183293420BD0E7
:103C30001832934208D01832934205D01A6822F005
:103C40000E021A60266809E01A6822F01E021A6045
:103C50002268536923F080035361266823686B4907
:103C60006B4A934218BF8B4242D0183293423FD0E6
:103C7000183293423CD01832934239D018329342D2
:103C800036D01832934233D01832934230D002F5F6
:103C9000567293422CD01832934229D01832934254
:103CA00026D01832934223D01832934220D01832B3
:103CB00093421DD0183293421AD01832934217D033
:103CC000544A934214D01432934211D01432934286
:103CD0000ED0143293420BD01432934208D01432D7
:103CE000934205D01432934202D01432934204D14D
:103CF000226E136823F48073136023684349444A97
:103D0000934218BF8B422FD0183293422CD01832D6
:103D1000934229D01832934226D01832934223D0AE
:103D20001832934220D0183293421DD002F55672B9
:103D3000934219D01832934216D01832934213D0BE
:103D40001832934210D0183293420DD01832934259
:103D50000AD01832934207D01832934204D01A681E
:103D600022F001021A6003E01A6822F001021A60D0
:103D7000336813F0010F0ED0FEF7FAFA431B052B40
:103D8000F6D920236365032384F83530002384F8B3
:103D9000343001201FE723681C491D4A934218BF95
:103DA0008B4239D01832934236D01832934233D0F6
:103DB0001832934230D0183293422DD018329342A9
:103DC0002AD01832934227D002F55672934223D05C
:103DD0001832934220D0183293421DD018329342A9
:103DE0001AD01832934217D01832934214D0183296
:103DF000934211D0183293420ED0A16DE36D03F0BF
:103E00001F02012393404B600DE000BF10000240F1
:103E10002800024008540258A16DE36D03F01F0210
:103E20003F2393408B6023682E492F4A934218BF4B
:103E30008B4242D0183293423FD0183293423CD04A
:103E40001832934239D01832934236D01832934206
:103E500033D01832934230D002F5567293422CD0B0
:103E60001832934229D01832934226D01832934206
:103E700023D01832934220D0183293421DD01832EA
:103E800093421AD01832934217D0184A934214D052
:103E90001432934211D0143293420ED01432934212
:103EA0000BD01432934208D01432934205D014320E
:103EB000934202D0143293420BD1636EA26E5A60C9
:103EC000E36E33B11A6822F480721A60236F626F56
:103ED0005A60012384F83530002084F834007AE6F3
:103EE000012078E6100002402800024008540258E1
:103EF000002800F0298108B5024690F83530DBB281
:103F0000022B03D080234365012008BD036890483D
:103F100090498B4218BF83420CBF0121002166D01B
:103F20003030834263D01830834260D018308342EF
:103F30005DD0183083425AD01830834257D01830A1
:103F4000834254D000F55670834250D018308342DB
:103F50004DD0183083424AD01830834247D01830B1
:103F6000834244D01830834241D0183083423ED03F
:103F7000183083423BD0196821F00E011960136894
:103F8000A0F5956073498B4218BF83426AD072498D
:103F90008B4267D018318B4264D018318B4261D08C
:103FA00018318B425ED018318B425BD018318B4276
:103FB00058D001F556718B4254D018318B4251D0F4
:103FC00018318B424ED018318B424BD018318B4276
:103FD00048D018318B4245D018318B4242D018312D
:103FE0008B423FD0196821F0010119603EE00420A6
:103FF00082F8350081BB584A93422DD01832934243
:104000002AD01832934227D01832934224D0183243
:10401000934221D0183293421ED002F55672934239
:104020001AD01832934217D01832934214D0183253
:10403000934211D0183293420ED0183293420BD0D3
:104040001832934208D01832934205D01A6822F0F1
:1040500001021A60002058E71A6822F001021A6073
:10406000002052E7196821F00101196013683848EF
:1040700038498B4218BF834242D018318B423FD01F
:1040800018318B423CD018318B4239D018318B42D9
:1040900036D018318B4233D018318B4230D001F5F5
:1040A00056718B422CD018318B4229D018318B425B
:1040B00026D018318B4223D018318B4220D01831B2
:1040C0008B421DD018318B421AD018318B4217D039
:1040D00022498B4214D014318B4211D014318B42BF
:1040E0000ED014318B420BD014318B4208D01431D6
:1040F0008B4205D014318B4202D014318B4217D140
:10410000116E0B6823F480730B60906DD36D03F018
:104110001F0101238B404360536E916E5960D36E33
:1041200033B1196821F480711960136F516F5960B0
:10413000012382F83530002382F83430136D2BB11F
:10414000104698470020E0E6012070470020DCE69A
:10415000100002402800024040000240085402586B
:10416000F0B583B00446002301937D4B1D687D4B61
:10417000A3FB0535AD0A876D3E68D7F800C003681C
:1041800079497A48834218BF8B420CBF0120002036
:1041900061D0774A93425ED0183293425BD0183296
:1041A000934258D01832934255D01832934252D08D
:1041B000183293424FD002F5567293424BD01832C8
:1041C000934248D01832934245D01832934242D09D
:1041D000183293423FD0183293423CD01832934267
:1041E00039D01832934236D06249634A934218BF9D
:1041F0008B4212D0614A93420FD0143293420CD0BA
:104200001432934209D01432934206D014329342AE
:1042100003D01432934240F061821A68E16D01F0DC
:104220001F010420884010EA0C0F00F0A78212F052
:10423000040F00F0A382786012F4004F00F05A825D
:1042400012F4803F40F05082A36C002B00F04682B5
:104250002046984742E2E26D02F01F0108228A40A0
:10426000324241D070BB424A93422BD01832934223
:1042700028D01832934225D01832934222D01832D7
:1042800093421FD0183293421CD002F556729342CB
:1042900018D01832934215D01832934212D01832E7
:1042A00093420FD0183293420CD01832934209D067
:1042B0001832934206D01832934203D01A68C2F3E0
:1042C000C00202E01A68C2F380026AB11A6822F0E2
:1042D00004021A60E36D03F01F0208239340BB60E1
:1042E000636D43F001036365E26D02F01F0226FA7D
:1042F00002F313F0010F47D023681B481B498B4280
:1043000018BF83423CD018318B4239D018318B42D0
:1043100036D018318B4233D018318B4230D018311F
:104320008B422DD018318B422AD001F556718B4229
:1043300026D018318B4223D018318B4220D018312F
:104340008B421DD018318B421AD018318B4217D0B6
:1043500018318B4214D018318B4211D01B6813E0F6
:1043600000000024B5814E1B1000024028000240CE
:1043700040000240085402581C540258305402585D
:104380005B6913F0800F3BD1E36D03F01F03042240
:1043900002FA03F3334240D02268964896498A4293
:1043A00018BF824235D018318A4232D018318A4241
:1043B0002FD018318A422CD018318A4229D0183196
:1043C0008A4226D018318A4223D001F556718A429A
:1043D0001FD018318A421CD018318A4219D01831A6
:1043E0008A4216D018318A4213D018318A4210D02E
:1043F00018318A420DD018318A420AD013680CE075
:10440000012303FA02F2BA60636D43F002036365AD
:10441000BAE7126812F0020F3DD1E36D03F01F03FB
:10442000102202FA03F333425FD0226871487249C6
:104430008A4218BF824234D018318A4231D01831B2
:104440008A422ED018318A422BD018318A4228D085
:1044500018318A4225D018318A4222D001F556718E
:104460008A421ED018318A421BD018318A4218D095
:1044700018318A4215D018318A4212D018318A4236
:104480000FD018318A420CD018318A4209D01268F4
:10449000C2F3800208E0BB60636D43F00403636510
:1044A000BBE71268C2F3C002FAB1BB6023681A68A6
:1044B00012F4802F0DD01B6813F4002F04D1236C4D
:1044C0009BB12046984710E0A36C73B120469847F3
:1044D0000BE01A6812F4807F03D11A6822F00802F8
:1044E0001A60236C0BB120469847E36D03F01F035D
:1044F000202202FA03F3334200F0928022683D4802
:104500003D498A4218BF82422ED018318A422BD0B0
:1045100018318A4228D018318A4225D018318A426F
:1045200022D018318A421FD018318A421CD001F59E
:1045300056718A4218D018318A4215D018318A42F1
:1045400012D018318A420FD018318A420CD018315B
:104550008A4209D018318A4206D018318A4203D0E3
:104560001268C2F3400202E01268C2F30012002A8D
:1045700056D0BB6094F83530DBB2042B0ED02368E4
:104580001A6812F4802F39D01B6813F4002F2CD135
:10459000636C002B44D02046984741E022681368A2
:1045A00023F0160313602268536923F080035361DC
:1045B000236CB3B12268136823F008031360E36D22
:1045C00003F01F023F239340BB60012384F8353082
:1045D000002384F83430236D002B7FD02046984789
:1045E0007CE0A36C002BE5D1E9E7E36BC3B1204687
:1045F000984715E010000240280002401A6812F4A3
:10460000807F09D11A6822F010021A60012384F811
:104610003530002384F83430E36B0BB120469847E3
:10462000636D002B5AD0636D13F0010F52D0042339
:1046300084F8353023689649964A934218BF8B42D6
:104640002FD0183293422CD01832934229D01832EE
:10465000934226D01832934223D01832934220D06E
:10466000183293421DD002F55672934219D0183277
:10467000934216D01832934213D01832934210D07E
:10468000183293420DD0183293420AD01832934216
:1046900007D01832934204D01A6822F001021A603F
:1046A00003E01A6822F001021A60019B01330193B2
:1046B000AB4204D823681B6813F0010FF5D12368BF
:1046C0001B6813F0010F0BD0032384F8353000234F
:1046D00084F83430E36C0BB12046984703B0F0BD4A
:1046E000012384F83530F2E7236C002BF6D0204606
:1046F0009847F3E712F0200F3AD123686449654ADE
:10470000934218BF8B422FD0183293422CD01832CC
:10471000934229D01832934226D01832934223D0A4
:104720001832934220D0183293421DD002F55672AF
:10473000934219D01832934216D01832934213D0B4
:104740001832934210D0183293420DD0183293424F
:104750000AD01832934207D01832934204D01A6814
:1047600022F004021A6003E01A6822F008021A60BC
:10477000236C002BB2D020469847AFE70220884038
:1047800010EA0C0F60D012F0020F5DD0786012F4C6
:10479000004F0ED012F4803F05D1636C002B9DD0EA
:1047A000204698479AE7E36B002B97D0204698471E
:1047B00094E712F0200F40D123683549354A9342DF
:1047C00018BF8B422FD0183293422CD0183293420C
:1047D00029D01832934226D01832934223D018326F
:1047E000934220D0183293421DD002F55672934264
:1047F00019D01832934216D01832934213D018327F
:10480000934210D0183293420DD0183293420AD0FE
:104810001832934207D01832934204D01A6822F01B
:104820000A021A6003E01A6822F014021A600123D7
:1048300084F83530002384F83430E36B002B3FF4E8
:104840004DAF2046984749E7082000FA01F111EAE8
:104850000C0F3FF443AF12F0080F3FF43FAF1A685C
:1048600022F00E021A60E36D03F01F03012202FA28
:1048700003F37B60626584F83520002384F83430CC
:10488000E36C002B3FF42AAF2046984726E700BF91
:10489000100002402800024030B4446B0368D3F893
:1048A00084106F4A114041EA8401C3F88410036800
:1048B000D3F8841021F47F01856B41EA0541C3F8E8
:1048C0008410836B23440468D4F88810114041EAB3
:1048D0008301C4F888100468D4F8881021F4FE011C
:1048E000C56B41EA0541C4F88810C16B03EB410375
:1048F0000468D4F8A010114041EA8301C4F8A01064
:104900000468D4F8A01021F4FE01056C41EA0541C9
:10491000C4F8A010016C446C04FB01330468D4F8A3
:10492000B010114041EA8301C4F8B0100468D4F813
:10493000B01021F4FE01856C41EA0541C4F8B010C5
:10494000816CC46C04FB01330468D4F8AC101140D2
:1049500041EA8301C4F8AC10016D446D04FB0133DE
:104960000468D4F8F010114041EA8301C4F8F01053
:104970000468D4F8F01021F47C11856D41EA0541FA
:10498000C4F8F010816D03EB41030468D4F8C01043
:104990000A4042EA8303C4F8C0300268D2F8C0304B
:1049A00023F47C13C16D43EA0143C2F8C0300268AE
:1049B000D2F8C03023F07C53016E43EA0163C2F8A1
:1049C000C030436B274A1A449200C266836B02EBE5
:1049D00083030367C16B03EBC1034367016C446C42
:1049E00004FB01F103EB81038367816CC46C04FB5E
:1049F00001F103EB8103C367016D446D04FB01F119
:104A000003EB8103C0F88030816D03EBC103C0F874
:104A10008430816EC46D01FB04FC03EB8C03C0F891
:104A20008830046E04FB01F103EB8103C0F8903081
:104A30000D498B420DD9D0F89C3043F02003C0F8CB
:104A40009C30032380F89830012007E0002342F8CF
:104A5000043BD0F890309342F8D8002030BC704727
:104A60000300FFFF002B0010FCD3004070B54C6822
:104A7000F4B90D698C6825430C6845EA84450E6AD3
:104A8000CC6944EA06648E6934434E693443CE6887
:104A90003443D0F88460806E00FB03F306EB830E92
:104AA00046F82350CEF804400EF1080E002019E01D
:104AB0000C698D6825430C68254345F08045DEE789
:104AC00002EB000C9CF803409CF802301B0443EA04
:104AD00004639CF8014043EA0423145C23434EF82A
:104AE000043B0430CB89024CE35C8342E8D870BDC0
:104AF000E421010830B595B004464C22A04901A834
:104B0000FBF77EFD002C00F0388123689D4A93421C
:104B100020D094F898300BB32268936923F01003E7
:104B20009361FDF725FC054623689A6912F0080F8A
:104B30001AD0FDF71DFC431B0A2BF5D9D4F89C3085
:104B400043F00103C4F89C30032384F8983001201B
:104B500015B030BD03F580736360DAE784F89930EF
:104B60002046FCF745F8D7E79A6942F001029A61BE
:104B7000FDF7FEFB054623689A6912F0010F0FD17D
:104B8000FDF7F6FB401B0A28F5D9D4F89C3043F01A
:104B90000103C4F89C30032384F898300120D7E740
:104BA0009A6942F002029A61237C012B40D022686C
:104BB000936943F040039361637C012B3ED02268EC
:104BC000936923F480439361A37C012B3CD022683A
:104BD000936943F4805393612268936923F440738B
:104BE000A1680B4393612268936923F0A403936146
:104BF0002268136923F010031361E368012B29D0A5
:104C0000002B2CD0022B00F09B802268936943F08C
:104C1000800393612268136943F010031361E36812
:104C2000032B1CD12268936943F02003936116E0A3
:104C30002268936923F040039361BDE7226893697A
:104C400043F480439361BFE72268936923F4805360
:104C50009361C1E72268936943F004039361A369F8
:104C60005A1EE369013B1B0243EA4263226A013A8E
:104C700013436269013A216843EA0243CB61A368A6
:104C8000B3F5407F62D0236E33B12268D2F8C030D2
:104C9000616E0B43C2F8C030E36D226ED3420DD07B
:104CA0002168D1F8C83023F00703A26E14A800EBE6
:104CB000820252F84C2C1343C1F8C830236C6BB1FC
:104CC0002168D1F8BC3023F00703626C14A800EB14
:104CD000820252F84C2C1343C1F8BC30A36C73B160
:104CE0002168D1F8BC3023F07003E26C14A800EB0B
:104CF000820252F84C2C43EA0213C1F8BC30236DF7
:104D000073B12168D1F8BC3023F4E063626D14A85C
:104D100000EB820252F84C2C43EA0223C1F8BC306B
:104D20002268184B9A4222D00023C4F89430C4F869
:104D30009C30012384F898302046FFF7ADFD07E74B
:104D40002268936943F02003936188E7A36A013BDB
:104D5000E26A013A43EA0223226B013A43EA021370
:104D6000626A013A216843EA0243CB608BE76268DA
:104D7000936823F003039360D6E70120E8E600BFC1
:104D80008020010800A0004090F89830013BDBB281
:104D9000012B07D9D0F89C3043F00203C0F89C30B7
:104DA00001207047CB680A68D2B9072B0ED08A68F9
:104DB000DB0643EA82730A6943EA02434A69134302
:104DC000C26E496842F82130002070470A69CB69F9
:104DD0001B0243EA02438A69134343F06053EFE73F
:104DE00010B40A6942EA4372072B0FD04B698C68F2
:104DF00043EA8473006F496800EBC10C40F831202E
:104E0000CCF8043000205DF8044B70478B69F1E763
:104E100090F89830DBB2012B07D0D0F89C3043F0EB
:104E20000403C0F89C3001207047022380F89830BA
:104E30000268936923F0010393610023C0F89C305A
:104E40001846704738B5044690F89830DBB2022B0C
:104E50002BD10368D3F8C00010F07C5F0CD0D3F8DE
:104E6000C40010F4001F0FD0D4F89C3043F400733A
:104E7000C4F89C3001201FE0D4F89C3043F020039C
:104E8000C4F89C30012017E0D3F8C450C5F30445A2
:104E90002B462046FFF7EAFD22680123AB40C2F80B
:104EA000D030C4F89430002006E0D0F89C3043F0B5
:104EB0000803C0F89C30012038BD000090F898C06D
:104EC0005FFA8CFCBCF1020F40F0DE8070B5402927
:104ED0000CD041293BD0046D8C4269D8D0F89C306D
:104EE00043F02003C0F89C300120BFE00468D4F8F0
:104EF000A05015F4FE0F0CD0D4F8A45015F07F0F7D
:104F00000FD1D0F89C3043F48073C0F89C3001205E
:104F1000ACE0D0F89C3043F02003C0F89C30012076
:104F2000A4E0D4F8A450C5F3006615F0807F02D049
:104F3000D4F8A0500026D4F8A440C4F30524264495
:104F4000456F446C06FB04F405EB840C37E0046801
:104F5000D4F8B05015F4FE0F0CD0D4F8B45015F0BE
:104F60007F0F0FD1D0F89C3043F48073C0F89C3091
:104F700001207BE0D0F89C3043F02003C0F89C3047
:104F8000012073E0D4F8B450C5F3006615F0807FBB
:104F900002D0D4F8B0500026D4F8B440C4F30524AD
:104FA0002644856FC46C06FB04F405EB840C06E014
:104FB000C56F446D01FB04F405EB840C0026DCF89E
:104FC000004004F08044546074BBDCF80040C4F33B
:104FD0008A441460DCF8004004F000549460DCF86B
:104FE000004004F000441461BCF80440D461DCF8D3
:104FF000044004F47024D460DCF8044004F4801409
:105000005461DCF8044004F4001494619CF80740F7
:1050100004F07F041462DCF80440E40F54620CF1E5
:10502000080E4FF0000C0BE0DCF8004024F0604468
:105030001460CFE71EF80C4003F80C400CF1010C93
:10504000D489154D2C5D6445F4D840290AD04129F6
:105050000DD01F290FD80268012303FA01F1C2F80D
:10506000981002E00368C3F8A860002070BD0368D0
:10507000C3F8B860F9E701F01F010268012303FAE1
:1050800001F1C2F89C10F0E7D0F89C3043F008031F
:10509000C0F89C3001207047E4210108402905D068
:1050A0000368D3F8B40000F07F0070470368D3F8BA
:1050B000A40000F07F0070470368D3F8C40000F03C
:1050C0003F00704790F89830013BDBB2012B07D9C5
:1050D000D0F89C3043F00203C0F89C3001207047A8
:1050E00010B403689C6D0C4224D1DC6D44F00104C3
:1050F000DC6511F4007F05D00468D4F8E030134378
:10510000C4F8E03011F4806F05D00468D4F8E430BE
:105110001A43C4F8E4200068436D0C4A0A40134364
:1051200043650B4A536943EA9171516100205DF870
:10513000044B70479C6D31EA040402D00324DC6503
:10514000D7E7DC6D44F00204DC65D2E7FFFFCF3F18
:1051500000A800407047704770477047704770471D
:105160007047704770477047704770477047704787
:10517000704700002DE9F04F83B00446B04B1A6928
:105180005B699B0703EA8273019303681A6D02F45B
:10519000704A5A6D0AEA020A1A6D02F00F095A6D36
:1051A00009EA02091A6D02F0F0085A6D08EA0208CD
:1051B0001E6D06F071565A6D16401F6D07F0607730
:1051C0005A6D17405D6DD3F850B015F4807F02D052
:1051D0001BF4807F64D115F4806F02D01BF4806FC4
:1051E00067D1019B002B74D1BAF1000F7CD1B9F1CA
:1051F000000F40F08580B8F1000F40F08D8015F46D
:10520000006F03D01BF4006F40F0928015F4007F14
:1052100003D01BF4007F40F0968015F4002F03D0DC
:105220001BF4002F40F09F8015F4803F03D01BF447
:10523000803F40F0A38015F4802F03D01BF4802F13
:1052400040F0A78015F4003F0FD01BF4003F0CD0B6
:1052500023684FF400321A65794B00221A61D4F8A2
:105260009C3043F08003C4F89C30002F40F09C80B9
:105270004EB123681E65B20F714B1A61D4F89C3091
:105280001E43C4F89C6022686E4B9A4200F09680E0
:10529000D4F89C30002B40F0F78003B0BDE8F08FCD
:1052A0004FF480721A65664B00221A61FFF75AFFAD
:1052B00091E72368D3F8DC10D3F8E4204FF4806042
:1052C00018655F4B0020186111402046FFF746FF2C
:1052D00087E7236800221A6501998A0F584B1A61E3
:1052E0002046FFF737FF7FE72368C3F850A04FEA57
:1052F0009A72534B1A6151462046FFF72CFF76E70E
:105300002368C3F850904FEA99724D4B1A61494691
:10531000204609F055FD6EE72368C3F850804FEA38
:105320009872474B1A614146204609F04EFD66E7E8
:1053300023684FF400621A65414B00221A6120462F
:10534000FFF70AFF62E72368D3F8D810D3F8E0200C
:105350004FF4007018653A4B002018611140204648
:10536000FFF7FBFE59E723684FF400221A65344B20
:1053700000221A612046FFF7F2FE55E723684FF43A
:1053800080321A652E4B00221A612046FFF7E8FE94
:1053900051E723684FF480221A65294B00221A61D5
:1053A0002046FFF7DEFE4DE723681F65BA0F244B4A
:1053B0001A6139462046FFF7D7FE59E763689A68B5
:1053C00012F0030F3FF464AF196A01F00F015A6A3B
:1053D000186A00F03008586A08EA00081F6A07F4E3
:1053E000C077586A07401E6A06F4FC46586A0640B1
:1053F0001D6A05F4F025586A0540D3F82490D3F8C7
:1054000020A0114020D1B8F1000F22D119F0400F97
:1054100002D01AF0400F24D17FBB36B163681E6200
:10542000D4F89C301E43C4F89C60002D3FF430AF8C
:1054300063681D62D4F89C301D43C4F89C5027E774
:1054400000A8004000A0004019622046FFF78DFE32
:10545000D9E76368C3F8208041462046FFF786FEFF
:10546000D4E76368D96BDA6B4020186202F03F0220
:10547000090C2046FFF77BFECEE763681F623946C2
:105480002046FFF775FEC8E72046FFF76CFE04E7ED
:10549000F0B583B000236BE085685E000324B44060
:1054A00025EA0405CC68B4402C438460446824EAAF
:1054B0000C0C4C68C4F300149C4044EA0C04446097
:1054C00068E0DD08083550F8256003F007044FEA6E
:1054D000840C0F2404FA0CF426EA040E0C6904FA76
:1054E0000CF444EA0E0440F825406BE0092400E087
:1054F000002404FA0EF42C430CF1020C664D45F81E
:105500002C404FF0B0442568D44325EA02064F688A
:1055100017F4801F01D042EA05064FF0B0452E6017
:105520006D6804EA05064F6817F4001F01D042EACF
:1055300005064FF0B0456E60D5F8845004EA0506C4
:105540004F6817F4003F01D042EA05064FF0B0451E
:10555000C5F88460D5F880502C404E6816F4803F22
:1055600001D042EA05044FF0B042C2F88040013356
:105570000A6832FA03F400F08C804FF0010C0CFA48
:1055800003FC1CEA0202F2D04C6804F00304013C64
:10559000012C81D94C6804F00304032C0CD0C4689E
:1055A0005D004FF0030C0CFA05FC24EA0C0C8C682F
:1055B000AC4044EA0C04C4604C6804F00304022CC0
:1055C0003FF47FAF04684FEA430E4FF0030C0CFA30
:1055D0000EFC24EA0C0C4C6804F0030404FA0EF4EC
:1055E00044EA0C0404604C6814F4403FBFD02B4CD8
:1055F000D4F8F45045F00205C4F8F450D4F8F4405F
:1056000004F002040194019C4FEA930C0CF1020592
:10561000214C54F8255003F003044FEA840E0F2464
:1056200004FA0EF425EA04051D4CA0423FF460AFD5
:1056300004F58064A0421ED004F58064A0421CD012
:1056400004F58064A0421AD004F58064A04218D00A
:1056500004F58064A04216D004F58064A04214D002
:1056600004F58064A04212D004F50064A0423FF427
:105670003DAF0A243DE701243BE7022439E7032438
:1056800037E7042435E7052433E7062431E7072408
:105690002FE703B0F0BD00BF0004005800440258DB
:1056A000000002580369194201D001207047002010
:1056B00070470AB181617047090481617047000039
:1056C000002857D010B5044690F84130002B41D047
:1056D000242384F841302268136823F00103136007
:1056E0006368226823F0706313612268936823F46F
:1056F00000439360E368012B31D0A368226843F430
:1057000004439360E368022B2FD0226851681A4B40
:105710000B4353602268D36823F40043D3602369AA
:1057200062691343A169226843EA0123D360E369F4
:10573000216A22680B4313602268136843F0010357
:10574000136000206064202384F84130206384F8D3
:10575000420010BD80F84030FBF734FCB8E7A36886
:10576000226843F400439360CCE723684FF400625F
:105770005A60CAE7012070470080000290F841306B
:10578000DBB2202B24D190F84030012B22D0012312
:1057900080F84030242380F841300268136823F0F9
:1057A000010313600268136823F4805313600268D6
:1057B0001368194311600268136843F00103136012
:1057C000202380F84130002380F84030184670478D
:1057D000022070470220704790F84130DBB2202B46
:1057E00022D190F84030012B20D0012380F84030A6
:1057F000242380F841300268136823F0010313600A
:105800000268136823F4706343EA0121116002689F
:10581000136843F001031360202380F84130002314
:1058200080F84030184670470220704702207047C9
:105830002DE9F04383B0D0F8008001EBC10300EB09
:1058400083031A6DDB6C9A4254D807460C469B1AA8
:1058500001EBC10200EB8202526C9A4200D31A465D
:1058600002F103094FEA990915E006F103094FEA2D
:10587000990904EBC40507EB8505A96C3B7B0093F4
:10588000B3B2E2B2404605F07AF9AB6C3344AB6494
:105890002B6D33442B6508EB441303F510639B69B0
:1058A0009BB24B4512D304EBC40207EB8202116D8D
:1058B000D36C99420AD24BB15B1A04EBC40207EBDA
:1058C0008202566C9E42D0D31E46CEE704EBC40043
:1058D00007EB8007FA6C3B6D9A420FD804F00F0477
:1058E0000123A340D8F8344824EA0304C8F8344814
:1058F000002000E0012003B0BDE8F0830020FAE7BB
:1059000070B504460D460068066C00EB411303F5C4
:1059100030639A68E168012911D038498E4256D027
:105920003DB905EBC50304EB8303D3F88C32002BA0
:105930005ED0E9B2204608F0A8FB002070BD12F04E
:10594000080F09D02E498E42F7D912F4004FF4D037
:105950004FF400429A60F0E712F0200F02D02022AC
:105960009A60EAE712F0280FE7D125498E4206D95E
:1059700012F4004F03D04FF400429A60DDE705EBCC
:10598000C50204EB8202D2F89C121B69C3F3120316
:10599000CB1AC2F890327DB905EBC50204EB820246
:1059A000D2F88C226AB105EBC50204EB8202D2F870
:1059B00088120B44C2F88832E9B2204608F065FB31
:1059C000BBE704F2C442012105F0E8FAF4E712F45F
:1059D000004F03D04FF400429A60AEE712F0200F60
:1059E00001D020229A60E9B2204608F04EFBA4E7DD
:1059F00004F2C442002105F0D1FA9AE70A31544F6B
:105A00000A30544F38B5044603681D6C03EB41134C
:105A1000D3F8081B0E4A954207D903F5306311F4F9
:105A2000004F02D04FF400429A60204608F025FB58
:105A3000074B9D4202D9E368012B01D0002038BDFD
:105A400004F2C4420121206805F0A8FAF6E700BF7D
:105A50000A30544F90F8BC34012B0DD010B50446D9
:105A6000012380F8BC3480F83810006805F041FA52
:105A7000002084F8BC0410BD0220704738B50546EC
:105A80008C4611F0800F29D101F00F0E0EEBCE04E1
:105A9000A40004F51E740444211D0EEBCE0E00EB91
:105AA0008E0E00208EF87D020CF00F0C81F800C0E5
:105AB0008A600B714A780AB1A1F81AC0022B1DD076
:105AC00095F8BC34012B1CD0012385F8BC34286820
:105AD00004F0A8FF002085F8BC0438BD01F00F00D9
:105AE00000EBC001890038312944043100EBC000CB
